{
  "_format": "hh-sol-artifact-1",
  "contractName": "ClaimsManager",
  "sourceName": "contracts/ClaimsManager.sol",
  "abi": [
    {
      "inputs": [],
      "stateMutability": "nonpayable",
      "type": "constructor"
    },
    {
      "anonymous": false,
      "inputs": [
        {
          "indexed": true,
          "internalType": "uint256",
          "name": "claimId",
          "type": "uint256"
        },
        {
          "indexed": true,
          "internalType": "address",
          "name": "beneficiary",
          "type": "address"
        },
        {
          "indexed": false,
          "internalType": "uint256",
          "name": "payoutAmount",
          "type": "uint256"
        },
        {
          "indexed": false,
          "internalType": "bytes21",
          "name": "feedId",
          "type": "bytes21"
        },
        {
          "indexed": false,
          "internalType": "uint256",
          "name": "triggerPrice",
          "type": "uint256"
        },
        {
          "indexed": false,
          "internalType": "bool",
          "name": "isPriceAbove",
          "type": "bool"
        }
      ],
      "name": "ClaimCreated",
      "type": "event"
    },
    {
      "anonymous": false,
      "inputs": [
        {
          "indexed": true,
          "internalType": "uint256",
          "name": "claimId",
          "type": "uint256"
        },
        {
          "indexed": false,
          "internalType": "uint256",
          "name": "currentPrice",
          "type": "uint256"
        },
        {
          "indexed": false,
          "internalType": "uint256",
          "name": "timestamp",
          "type": "uint256"
        }
      ],
      "name": "ClaimExecuted",
      "type": "event"
    },
    {
      "inputs": [],
      "name": "claimCounter",
      "outputs": [
        {
          "internalType": "uint256",
          "name": "",
          "type": "uint256"
        }
      ],
      "stateMutability": "view",
      "type": "function"
    },
    {
      "inputs": [
        {
          "internalType": "uint256",
          "name": "",
          "type": "uint256"
        }
      ],
      "name": "claims",
      "outputs": [
        {
          "internalType": "uint256",
          "name": "id",
          "type": "uint256"
        },
        {
          "internalType": "address",
          "name": "beneficiary",
          "type": "address"
        },
        {
          "internalType": "uint256",
          "name": "payoutAmount",
          "type": "uint256"
        },
        {
          "internalType": "bytes21",
          "name": "feedId",
          "type": "bytes21"
        },
        {
          "internalType": "uint256",
          "name": "triggerPrice",
          "type": "uint256"
        },
        {
          "internalType": "bool",
          "name": "isPriceAbove",
          "type": "bool"
        },
        {
          "internalType": "uint256",
          "name": "createdAt",
          "type": "uint256"
        },
        {
          "internalType": "bool",
          "name": "executed",
          "type": "bool"
        }
      ],
      "stateMutability": "view",
      "type": "function"
    },
    {
      "inputs": [
        {
          "internalType": "bytes21",
          "name": "_feedId",
          "type": "bytes21"
        },
        {
          "internalType": "uint256",
          "name": "_triggerPrice",
          "type": "uint256"
        },
        {
          "internalType": "bool",
          "name": "_isPriceAbove",
          "type": "bool"
        }
      ],
      "name": "createClaim",
      "outputs": [],
      "stateMutability": "payable",
      "type": "function"
    },
    {
      "inputs": [
        {
          "internalType": "uint256",
          "name": "_claimId",
          "type": "uint256"
        }
      ],
      "name": "executeClaim",
      "outputs": [],
      "stateMutability": "nonpayable",
      "type": "function"
    },
    {
      "inputs": [
        {
          "internalType": "uint256",
          "name": "_claimId",
          "type": "uint256"
        }
      ],
      "name": "getClaim",
      "outputs": [
        {
          "components": [
            {
              "internalType": "uint256",
              "name": "id",
              "type": "uint256"
            },
            {
              "internalType": "address",
              "name": "beneficiary",
              "type": "address"
            },
            {
              "internalType": "uint256",
              "name": "payoutAmount",
              "type": "uint256"
            },
            {
              "internalType": "bytes21",
              "name": "feedId",
              "type": "bytes21"
            },
            {
              "internalType": "uint256",
              "name": "triggerPrice",
              "type": "uint256"
            },
            {
              "internalType": "bool",
              "name": "isPriceAbove",
              "type": "bool"
            },
            {
              "internalType": "uint256",
              "name": "createdAt",
              "type": "uint256"
            },
            {
              "internalType": "bool",
              "name": "executed",
              "type": "bool"
            }
          ],
          "internalType": "struct ClaimsManager.Claim",
          "name": "",
          "type": "tuple"
        }
      ],
      "stateMutability": "view",
      "type": "function"
    },
    {
      "inputs": [
        {
          "internalType": "bytes21",
          "name": "_feedId",
          "type": "bytes21"
        }
      ],
      "name": "getCurrentPrice",
      "outputs": [
        {
          "internalType": "uint256",
          "name": "price",
          "type": "uint256"
        },
        {
          "internalType": "int8",
          "name": "decimals",
          "type": "int8"
        },
        {
          "internalType": "uint64",
          "name": "timestamp",
          "type": "uint64"
        }
      ],
      "stateMutability": "nonpayable",
      "type": "function"
    }
  ],
  "bytecode": "0x608060405234801561001057600080fd5b5061001f61006360201b60201c565b6000806101000a81548173ffffffffffffffffffffffffffffffffffffffff021916908373ffffffffffffffffffffffffffffffffffffffff16021790555061025d565b600073ad67fe66660fb8dfe9d6b1b4240d8650e30f601973ffffffffffffffffffffffffffffffffffffffff1663159354a26040516020016100a490610179565b604051602081830303815290604052805190602001206040518263ffffffff1660e01b81526004016100d691906101b2565b602060405180830381865afa1580156100f3573d6000803e3d6000fd5b505050506040513d601f19601f820116820180604052508101906101179190610230565b905090565b600082825260208201905092915050565b7f4674736f56320000000000000000000000000000000000000000000000000000600082015250565b600061016360068361011c565b915061016e8261012d565b602082019050919050565b6000602082019050818103600083015261019281610156565b9050919050565b6000819050919050565b6101ac81610199565b82525050565b60006020820190506101c760008301846101a3565b92915050565b600080fd5b600073ffffffffffffffffffffffffffffffffffffffff82169050919050565b60006101fd826101d2565b9050919050565b61020d816101f2565b811461021857600080fd5b50565b60008151905061022a81610204565b92915050565b600060208284031215610246576102456101cd565b5b60006102548482850161021b565b91505092915050565b6112b08061026c6000396000f3fe6080604052600436106100555760003560e01c80634efa8f171461005a5780635aef244714610085578063a888c2cd146100c2578063a908f02114610106578063c826c26514610145578063fc58b54a14610161575b600080fd5b34801561006657600080fd5b5061006f61018a565b60405161007c91906109ca565b60405180910390f35b34801561009157600080fd5b506100ac60048036038101906100a79190610a16565b610190565b6040516100b99190610b8b565b60405180910390f35b3480156100ce57600080fd5b506100e960048036038101906100e49190610a16565b6102a5565b6040516100fd989796959493929190610bd4565b60405180910390f35b34801561011257600080fd5b5061012d60048036038101906101289190610c7e565b610334565b60405161013c93929190610cea565b60405180910390f35b61015f600480360381019061015a9190610d4d565b6103e3565b005b34801561016d57600080fd5b5061018860048036038101906101839190610a16565b61063c565b005b60025481565b610198610944565b6001600083815260200190815260200160002060405180610100016040529081600082015481526020016001820160009054906101000a900473ffffffffffffffffffffffffffffffffffffffff1673ffffffffffffffffffffffffffffffffffffffff1673ffffffffffffffffffffffffffffffffffffffff168152602001600282015481526020016003820160009054906101000a900460581b6affffffffffffffffffffff19166affffffffffffffffffffff19168152602001600482015481526020016005820160009054906101000a900460ff16151515158152602001600682015481526020016007820160009054906101000a900460ff1615151515815250509050919050565b60016020528060005260406000206000915090508060000154908060010160009054906101000a900473ffffffffffffffffffffffffffffffffffffffff16908060020154908060030160009054906101000a900460581b908060040154908060050160009054906101000a900460ff16908060060154908060070160009054906101000a900460ff16905088565b60008060008060009054906101000a900473ffffffffffffffffffffffffffffffffffffffff1673ffffffffffffffffffffffffffffffffffffffff166393e9f806856040518263ffffffff1660e01b81526004016103939190610da0565b6060604051808303816000875af11580156103b2573d6000803e3d6000fd5b505050506040513d601f19601f820116820180604052508101906103d69190610e28565b9250925092509193909250565b60003411610426576040517f08c379a000000000000000000000000000000000000000000000000000000000815260040161041d90610ed8565b60405180910390fd5b60008211610469576040517f08c379a000000000000000000000000000000000000000000000000000000000815260040161046090610f44565b60405180910390fd5b60006002600081548092919061047e90610f93565b9190505590506040518061010001604052808281526020013373ffffffffffffffffffffffffffffffffffffffff168152602001348152602001856affffffffffffffffffffff19168152602001848152602001831515815260200142815260200160001515815250600160008381526020019081526020016000206000820151816000015560208201518160010160006101000a81548173ffffffffffffffffffffffffffffffffffffffff021916908373ffffffffffffffffffffffffffffffffffffffff1602179055506040820151816002015560608201518160030160006101000a81548174ffffffffffffffffffffffffffffffffffffffffff021916908360581c02179055506080820151816004015560a08201518160050160006101000a81548160ff02191690831515021790555060c0820151816006015560e08201518160070160006101000a81548160ff0219169083151502179055509050503373ffffffffffffffffffffffffffffffffffffffff16817f1a3e99bea0841f5aae9b92556ae02a9841e90338cf8db4f43c874a85b8e835303487878760405161062e9493929190610fdb565b60405180910390a350505050565b60006001600083815260200190815260200160002090508060070160009054906101000a900460ff16156106a5576040517f08c379a000000000000000000000000000000000000000000000000000000000815260040161069c9061106c565b60405180910390fd5b60008160020154116106ec576040517f08c379a00000000000000000000000000000000000000000000000000000000081526004016106e3906110d8565b60405180910390fd5b60008060008054906101000a900473ffffffffffffffffffffffffffffffffffffffff1673ffffffffffffffffffffffffffffffffffffffff166393e9f8068460030160009054906101000a900460581b6040518263ffffffff1660e01b81526004016107599190610da0565b6060604051808303816000875af1158015610778573d6000803e3d6000fd5b505050506040513d601f19601f8201168201806040525081019061079c9190610e28565b925050915060008360050160009054906101000a900460ff166107c65783600401548311156107cf565b83600401548310155b905080610811576040517f08c379a000000000000000000000000000000000000000000000000000000000815260040161080890611144565b60405180910390fd5b60018460070160006101000a81548160ff02191690831515021790555060008460010160009054906101000a900473ffffffffffffffffffffffffffffffffffffffff1673ffffffffffffffffffffffffffffffffffffffff16856002015460405161087c90611195565b60006040518083038185875af1925050503d80600081146108b9576040519150601f19603f3d011682016040523d82523d6000602084013e6108be565b606091505b5050905080610902576040517f08c379a00000000000000000000000000000000000000000000000000000000081526004016108f9906111f6565b60405180910390fd5b857f87769ba3bd5e40c182bcabab3ec703cb3d544bce61d7bb37bd05a384d22f348e8585604051610934929190611251565b60405180910390a2505050505050565b60405180610100016040528060008152602001600073ffffffffffffffffffffffffffffffffffffffff1681526020016000815260200160006affffffffffffffffffffff1916815260200160008152602001600015158152602001600081526020016000151581525090565b6000819050919050565b6109c4816109b1565b82525050565b60006020820190506109df60008301846109bb565b92915050565b600080fd5b6109f3816109b1565b81146109fe57600080fd5b50565b600081359050610a10816109ea565b92915050565b600060208284031215610a2c57610a2b6109e5565b5b6000610a3a84828501610a01565b91505092915050565b610a4c816109b1565b82525050565b600073ffffffffffffffffffffffffffffffffffffffff82169050919050565b6000610a7d82610a52565b9050919050565b610a8d81610a72565b82525050565b60007fffffffffffffffffffffffffffffffffffffffffff000000000000000000000082169050919050565b610ac881610a93565b82525050565b60008115159050919050565b610ae381610ace565b82525050565b61010082016000820151610b006000850182610a43565b506020820151610b136020850182610a84565b506040820151610b266040850182610a43565b506060820151610b396060850182610abf565b506080820151610b4c6080850182610a43565b5060a0820151610b5f60a0850182610ada565b5060c0820151610b7260c0850182610a43565b5060e0820151610b8560e0850182610ada565b50505050565b600061010082019050610ba16000830184610ae9565b92915050565b610bb081610a72565b82525050565b610bbf81610a93565b82525050565b610bce81610ace565b82525050565b600061010082019050610bea600083018b6109bb565b610bf7602083018a610ba7565b610c0460408301896109bb565b610c116060830188610bb6565b610c1e60808301876109bb565b610c2b60a0830186610bc5565b610c3860c08301856109bb565b610c4560e0830184610bc5565b9998505050505050505050565b610c5b81610a93565b8114610c6657600080fd5b50565b600081359050610c7881610c52565b92915050565b600060208284031215610c9457610c936109e5565b5b6000610ca284828501610c69565b91505092915050565b60008160000b9050919050565b610cc181610cab565b82525050565b600067ffffffffffffffff82169050919050565b610ce481610cc7565b82525050565b6000606082019050610cff60008301866109bb565b610d0c6020830185610cb8565b610d196040830184610cdb565b949350505050565b610d2a81610ace565b8114610d3557600080fd5b50565b600081359050610d4781610d21565b92915050565b600080600060608486031215610d6657610d656109e5565b5b6000610d7486828701610c69565b9350506020610d8586828701610a01565b9250506040610d9686828701610d38565b9150509250925092565b6000602082019050610db56000830184610bb6565b92915050565b600081519050610dca816109ea565b92915050565b610dd981610cab565b8114610de457600080fd5b50565b600081519050610df681610dd0565b92915050565b610e0581610cc7565b8114610e1057600080fd5b50565b600081519050610e2281610dfc565b92915050565b600080600060608486031215610e4157610e406109e5565b5b6000610e4f86828701610dbb565b9350506020610e6086828701610de7565b9250506040610e7186828701610e13565b9150509250925092565b600082825260208201905092915050565b7f4d7573742066756e6420636c61696d0000000000000000000000000000000000600082015250565b6000610ec2600f83610e7b565b9150610ecd82610e8c565b602082019050919050565b60006020820190508181036000830152610ef181610eb5565b9050919050565b7f496e76616c696420747269676765722070726963650000000000000000000000600082015250565b6000610f2e601583610e7b565b9150610f3982610ef8565b602082019050919050565b60006020820190508181036000830152610f5d81610f21565b9050919050565b7f4e487b7100000000000000000000000000000000000000000000000000000000600052601160045260246000fd5b6000610f9e826109b1565b91507fffffffffffffffffffffffffffffffffffffffffffffffffffffffffffffffff8203610fd057610fcf610f64565b5b600182019050919050565b6000608082019050610ff060008301876109bb565b610ffd6020830186610bb6565b61100a60408301856109bb565b6110176060830184610bc5565b95945050505050565b7f416c726561647920657865637574656400000000000000000000000000000000600082015250565b6000611056601083610e7b565b915061106182611020565b602082019050919050565b6000602082019050818103600083015261108581611049565b9050919050565b7f436c61696d20646f6573206e6f74206578697374000000000000000000000000600082015250565b60006110c2601483610e7b565b91506110cd8261108c565b602082019050919050565b600060208201905081810360008301526110f1816110b5565b9050919050565b7f507269636520636f6e646974696f6e206e6f74206d6574000000000000000000600082015250565b600061112e601783610e7b565b9150611139826110f8565b602082019050919050565b6000602082019050818103600083015261115d81611121565b9050919050565b600081905092915050565b50565b600061117f600083611164565b915061118a8261116f565b600082019050919050565b60006111a082611172565b9150819050919050565b7f5472616e73666572206661696c65640000000000000000000000000000000000600082015250565b60006111e0600f83610e7b565b91506111eb826111aa565b602082019050919050565b6000602082019050818103600083015261120f816111d3565b9050919050565b6000819050919050565b600061123b61123661123184610cc7565b611216565b6109b1565b9050919050565b61124b81611220565b82525050565b600060408201905061126660008301856109bb565b6112736020830184611242565b939250505056fea2646970667358221220e7b693873b8c31a710c2fe28caf686dde88ab0f017920a02f42f82326164c3ff64736f6c63430008190033",
  "linkReferences": {},
  "deployedLinkReferences": {}
}